:1002A6003F065B4F666D7D077F6F777C395E7971A0
:0102B6000047
:100285007FC87E0012029BC2907F327E0012029BC5
:06029500D2907FC87E003C
:0B029B00EF1FAC0670011E4C70F62235
:10012200C3950AFBE49400FA7C007D0AAF03FE1239
:1001320001D374A62FF58274023EF583E493F50D84
:100142007C007D0AAF03AE021201D374A62DF582A4
:1001520074023CF583E493F50EE4F50FF510850D7A
:0401620011850E12E3
:10016600E4FDEDB40800504D900175F8282873029F
:10017600018D02019102019902019D0201A5020170
:10018600A90201B10201B5C2A28002D2A2C2A3C2D3
:10019600A48022C2A28002D2A2D2A3C2A48016C286
:1001A600A28002D2A2C2A3D2A4800AC2A28002D294
:1001B600A2D2A3D2A4740B2DF8E6F5807F647E004C
:0C01C60012029BE4F5800DED64087096B9
:0101D200220A
:1002B700438901758CFC758A18D2A9D2AFD28C22DA
:03000B0002025E90
:04025E00C0E0C0D06C
:10026200758CFC758A180509E50970020508B4E861
:0E0272000DE508B40308750800750900050ABB
:05028000D0D0D0E032F7
:10000E00750A011202B7E50AB44603750A01E50A3C
:10001E00D3941E503BE4F50BF50C741E12012275A1
:10002E0090FFD2B0D2B1C2947F327E0012029BD228
:10003E0094120297C2917F327E0012029BD29112CD
:10004E000297C2957F327E0012029BD29502008FDC
:10005E00E50AD39423503BE4F50BF50C74231201FF
:10006E00227590FFD2B0D2B1C2937F327E001202BF
:10007E009BD293120285C2967F327E0012029BD2D1
:10008E0096120297C2B07F327E0012029BD2B0024D
:10009E00011CE50AD39441503CE4F50BF50CC374F6
:1000AE00411201237590FFD2B0D2B1C2927F327E3F
:1000BE000012029BD292120285C2977F327E0012EC
:1000CE00029BD297120297C2B17F327E0012029B20
:1000DE00D2B102011CE4F50BF50CC37446120123D8
:1000EE007590FFD2B0D2B1C2967F327E0012029BC3
:1000FE00D296120285C2937F327E0012029BD29359
:10010E00120297C2B07F327E0012029BD2B0120250
:04011E009702001430
:030000000202C732
:0C02C700787FE4F6D8FD75811202000E6D
:1001D300C2D5EC30E709B2D5E4C39DFDE49CFCEE47
:1001E30030E715B2D5E4C39FFFE49EFE120209C3B4
:1001F300E49DFDE49CFC800312020930D507C3E4AF
:060203009FFFE49EFE22B5
:10020900BC000BBE0029EF8DF084FFADF022E4CCD9
:10021900F875F008EF2FFFEE33FEEC33FCEE9DECA2
:10022900984005FCEE9DFE0FD5F0E9E4CEFD22EDE8
:10023900F8F5F0EE8420D21CFEADF075F008EF2F32
:10024900FFED33FD4007985006D5F0F222C398FD23
:050259000FD5F0EA22C0
:00000001FF
