:1000EC0008100102040810204080080800049FAA90
:0400FC00AA84CA0008
:0B010100EF1FAC0670011E4C70F622D0
:10008F00D2B5D2B6E4FEEFC4131313540124FF927A
:10009F00B4EF25E0FFC2B600D2B60EBE08E8E4FE0C
:1000AF00EDC4131313540124FF92B4ED25E0FDC2E8
:0D00BF00B600D2B60EBE08E8C2B500D2B53C
:0100CC002211
:1000CD00E4FB74082BF8E6F4FF74102BF8E6FD1230
:0F00DD00008F7F0A7E001201010BBB08E580E156
:03000000020003F8
:0C000300787FE4F6D8FD75811702004AF2
:10000F000200CDE493A3F8E493A34003F68001F23A
:10001F0008DFF48029E493A3F85407240CC8C333F2
:10002F00C4540F4420C8834004F456800146F6DFC1
:10003F00E4800B01020408102040809000ECE47E65
:10004F00019360BCA3FF543F30E509541FFEE493B6
:10005F00A360010ECF54C025E060A840B8E493A37D
:10006F00FAE493A3F8E493A3C8C582C8CAC583CAA8
:10007F00F0A3C8C582C8CAC583CADFE9DEE780BE60
:0101000000FE
:00000001FF
