:100070003F065B4F666D7D077F6F777C395E7971D8
:0B008C00EF1FAC0670011E4C70F62246
:10000300E4FDEDB40800504D900012F82828730267
:10001300002A02002E02003602003A0200420200C9
:100023004602004E020052C2A28002D2A2C2A3C262
:10003300A48022C2A28002D2A2D2A3C2A48016C2EA
:10004300A28002D2A2C2A3D2A4800AC2A28002D2F8
:10005300A2D2A3D2A4ED90007093F5807F327E00EC
:0C00630012008CE4F5800DED640870962E
:01006F00226E
:0500970012000380FBD4
:030000000200807B
:0C008000787FE4F6D8FD75810702009738
:00000001FF
