:1003D3003F065B4F666D7D077F6F777C395E797172
:0103E3000019
:0B03E400EF1FAC0670011E4C70F622EB
:10033400E4FDEDB40800504D900343F828287302FF
:10034400035B02035F02036702036B02037302038E
:100354007702037F020383C2A28002D2A2C2A3C295
:10036400A48022C2A28002D2A2D2A3C2A48016C2B6
:10037400A28002D2A2C2A3D2A4800AC2A28002D2C4
:10038400A2D2A3D2A474102DF8E6F5807F647E0077
:0C0394001203E4E4F5800DED640870969F
:0103A000223A
:1003BF00438951758C3C758AB0D2A9D2ABD2AFD2DA
:0403CF008CD28E221C
:03000B000202C12D
:1002C100C0E0C0F0C083C082C0D075D000C000C003
:1002D10001C002C003C004C005C006C007758C3C44
:1002E100758AB0E50B2401F50BE4350AF50AE4350E
:1002F10009F509E43508F508E47F14FEFDFCAB0BB4
:10030100AA0AA909A808C31202B0700CF50BF50AD4
:10031100F509F508C28CC28ED007D006D005D004ED
:10032100D003D002D001D000D0D0D082D083D0F081
:03033100D0E032E7
:03001B000203A13C
:1003A100C0E0C0D0E4250FF50FE4350EF50EE50DE4
:0E03B1003401F50DE4350CF50CD0D0D0E0325F
:10001E001203BF308E030201DCAF8DEFFEAD8B7C81
:10002E0000E42DFFEC3EFEE4FDE50F2FF50FE50E8F
:10003E003EF50EED350DF50DEC350CF50C7B007A1D
:10004E00E179F57805AF0FAE0EAD0DFC12021EACC8
:10005E0000AD01AE02AF037B807A967998780012DC
:10006E00021E74D32FF58274033EF583E493F510CC
:10007E007B807A9679987800AF0FAE0EAD0DAC0CF2
:10008E0012021EAC00AD01AE02AF037B407A427984
:10009E000F780012021E74D32FF58274033EF5837F
:1000AE00E493F5117B407A42790F7800AF0FAE0ED4
:1000BE00AD0DAC0C12021EAC00AD01AE02AF037B57
:1000CE00A07A867901780012021E74D32FF58274FD
:1000DE00033EF583E493F5127BA07A8679017800CE
:1000EE00AF0FAE0EAD0DAC0C12021EAC00AD01AEDC
:1000FE0002AF03E47B107A27F9F812021E74D32F95
:10010E00F58274033EF583E493F513E47B107A27AE
:10011E00F9F8AF0FAE0EAD0DAC0C12021EAC00AD69
:10012E0001AE02AF03E47BE87A03F9F812021E7403
:10013E00D32FF58274033EF583E493F514E47BE844
:10014E007A03F9F8AF0FAE0EAD0DAC0C12021EAC69
:10015E0000AD01AE02AF03E47B64FAF9F812021EA1
:10016E0074D32FF58274033EF583E493F515E47B87
:10017E0064FAF9F8AF0FAE0EAD0DAC0C12021EAC58
:10018E0000AD01AE02AF03E47B0AFAF9F812021ECB
:10019E0074D32FF58274033EF583E493F516E47B56
:1001AE000AFAF9F8AF0FAE0EAD0DAC0C12021E74BA
:1001BE00D32BF58274033AF583E493F517E4F50F28
:1001CE00F50EF50DF50CF58DF58BD28CD28E120346
:0401DE0034020021C6
:0300000002000EED
:0C000E00787FE4F6D8FD75811702001E13
:1001E20075F008758200EF2FFFEE33FECD33CDCCD4
:1001F20033CCC58233C5829BED9AEC99E582984057
:100202000CF582EE9BFEED9AFDEC99FC0FD5F0D633
:10021200E4CEFBE4CDFAE4CCF9A88222B800C1B95D
:100222000059BA002DEC8BF084CFCECDFCE5F0CB9B
:10023200F97818EF2FFFEE33FEED33FDEC33FCEBD4
:1002420033FB10D703994004EB99FB0FD8E5E4F98F
:10025200FA227818EF2FFFEE33FEED33FDEC33FC7C
:10026200C933C910D7059BE99A4007EC9BFCE99A70
:10027200F90FD8E0E4C9FAE4CCFB2275F010EF2FB5
:10028200FFEE33FEED33FDCC33CCC833C810D707B5
:100292009BEC9AE899400AED9BFDEC9AFCE899F8F0
:0E02A2000FD5F0DAE4CDFBE4CCFAE4C8F92283
:1002B000EB9FF5F0EA9E42F0E99D42F0E89C45F0A4
:0102C000221B
:00000001FF
